{
  "_format": "hh-sol-artifact-1",
  "contractName": "Estate",
  "sourceName": "contracts/Estate.sol",
  "abi": [
    {
      "inputs": [
        {
          "internalType": "uint256",
          "name": "_taxPercent",
          "type": "uint256"
        },
        {
          "internalType": "uint256",
          "name": "_securityFee",
          "type": "uint256"
        }
      ],
      "stateMutability": "nonpayable",
      "type": "constructor"
    },
    {
      "anonymous": false,
      "inputs": [
        {
          "indexed": true,
          "internalType": "address",
          "name": "previousOwner",
          "type": "address"
        },
        {
          "indexed": true,
          "internalType": "address",
          "name": "newOwner",
          "type": "address"
        }
      ],
      "name": "OwnershipTransferred",
      "type": "event"
    },
    {
      "inputs": [
        {
          "internalType": "uint256",
          "name": "aid",
          "type": "uint256"
        },
        {
          "internalType": "string",
          "name": "reviewText",
          "type": "string"
        }
      ],
      "name": "addReview",
      "outputs": [],
      "stateMutability": "nonpayable",
      "type": "function"
    },
    {
      "inputs": [
        {
          "internalType": "uint256",
          "name": "aid",
          "type": "uint256"
        },
        {
          "internalType": "uint256[]",
          "name": "dates",
          "type": "uint256[]"
        }
      ],
      "name": "bookApartment",
      "outputs": [],
      "stateMutability": "payable",
      "type": "function"
    },
    {
      "inputs": [
        {
          "internalType": "uint256",
          "name": "aid",
          "type": "uint256"
        },
        {
          "internalType": "uint256",
          "name": "bookingId",
          "type": "uint256"
        }
      ],
      "name": "checkInApartment",
      "outputs": [],
      "stateMutability": "nonpayable",
      "type": "function"
    },
    {
      "inputs": [
        {
          "internalType": "uint256",
          "name": "aid",
          "type": "uint256"
        },
        {
          "internalType": "uint256",
          "name": "bookingId",
          "type": "uint256"
        }
      ],
      "name": "claimFunds",
      "outputs": [],
      "stateMutability": "nonpayable",
      "type": "function"
    },
    {
      "inputs": [
        {
          "internalType": "string",
          "name": "name",
          "type": "string"
        },
        {
          "internalType": "string",
          "name": "description",
          "type": "string"
        },
        {
          "internalType": "string",
          "name": "location",
          "type": "string"
        },
        {
          "internalType": "string",
          "name": "images",
          "type": "string"
        },
        {
          "internalType": "uint256",
          "name": "rooms",
          "type": "uint256"
        },
        {
          "internalType": "uint256",
          "name": "price",
          "type": "uint256"
        }
      ],
      "name": "createAppartment",
      "outputs": [],
      "stateMutability": "nonpayable",
      "type": "function"
    },
    {
      "inputs": [
        {
          "internalType": "uint256",
          "name": "id",
          "type": "uint256"
        }
      ],
      "name": "deleteAppartment",
      "outputs": [],
      "stateMutability": "nonpayable",
      "type": "function"
    },
    {
      "inputs": [
        {
          "internalType": "uint256",
          "name": "id",
          "type": "uint256"
        }
      ],
      "name": "getApartment",
      "outputs": [
        {
          "components": [
            {
              "internalType": "uint256",
              "name": "id",
              "type": "uint256"
            },
            {
              "internalType": "string",
              "name": "name",
              "type": "string"
            },
            {
              "internalType": "string",
              "name": "description",
              "type": "string"
            },
            {
              "internalType": "string",
              "name": "location",
              "type": "string"
            },
            {
              "internalType": "string",
              "name": "images",
              "type": "string"
            },
            {
              "internalType": "uint256",
              "name": "rooms",
              "type": "uint256"
            },
            {
              "internalType": "uint256",
              "name": "price",
              "type": "uint256"
            },
            {
              "internalType": "address",
              "name": "owner",
              "type": "address"
            },
            {
              "internalType": "bool",
              "name": "booked",
              "type": "bool"
            },
            {
              "internalType": "bool",
              "name": "deleted",
              "type": "bool"
            },
            {
              "internalType": "uint256",
              "name": "timestamp",
              "type": "uint256"
            }
          ],
          "internalType": "struct Estate.ApartmentStruct",
          "name": "",
          "type": "tuple"
        }
      ],
      "stateMutability": "view",
      "type": "function"
    },
    {
      "inputs": [],
      "name": "getApartments",
      "outputs": [
        {
          "components": [
            {
              "internalType": "uint256",
              "name": "id",
              "type": "uint256"
            },
            {
              "internalType": "string",
              "name": "name",
              "type": "string"
            },
            {
              "internalType": "string",
              "name": "description",
              "type": "string"
            },
            {
              "internalType": "string",
              "name": "location",
              "type": "string"
            },
            {
              "internalType": "string",
              "name": "images",
              "type": "string"
            },
            {
              "internalType": "uint256",
              "name": "rooms",
              "type": "uint256"
            },
            {
              "internalType": "uint256",
              "name": "price",
              "type": "uint256"
            },
            {
              "internalType": "address",
              "name": "owner",
              "type": "address"
            },
            {
              "internalType": "bool",
              "name": "booked",
              "type": "bool"
            },
            {
              "internalType": "bool",
              "name": "deleted",
              "type": "bool"
            },
            {
              "internalType": "uint256",
              "name": "timestamp",
              "type": "uint256"
            }
          ],
          "internalType": "struct Estate.ApartmentStruct[]",
          "name": "Apartments",
          "type": "tuple[]"
        }
      ],
      "stateMutability": "view",
      "type": "function"
    },
    {
      "inputs": [
        {
          "internalType": "uint256",
          "name": "aid",
          "type": "uint256"
        },
        {
          "internalType": "uint256",
          "name": "bookingId",
          "type": "uint256"
        }
      ],
      "name": "getBooking",
      "outputs": [
        {
          "components": [
            {
              "internalType": "uint256",
              "name": "id",
              "type": "uint256"
            },
            {
              "internalType": "uint256",
              "name": "aid",
              "type": "uint256"
            },
            {
              "internalType": "address",
              "name": "tenant",
              "type": "address"
            },
            {
              "internalType": "uint256",
              "name": "date",
              "type": "uint256"
            },
            {
              "internalType": "uint256",
              "name": "price",
              "type": "uint256"
            },
            {
              "internalType": "bool",
              "name": "checked",
              "type": "bool"
            },
            {
              "internalType": "bool",
              "name": "cancelled",
              "type": "bool"
            }
          ],
          "internalType": "struct Estate.BookingStruct",
          "name": "",
          "type": "tuple"
        }
      ],
      "stateMutability": "view",
      "type": "function"
    },
    {
      "inputs": [
        {
          "internalType": "uint256",
          "name": "aid",
          "type": "uint256"
        }
      ],
      "name": "getBookings",
      "outputs": [
        {
          "components": [
            {
              "internalType": "uint256",
              "name": "id",
              "type": "uint256"
            },
            {
              "internalType": "uint256",
              "name": "aid",
              "type": "uint256"
            },
            {
              "internalType": "address",
              "name": "tenant",
              "type": "address"
            },
            {
              "internalType": "uint256",
              "name": "date",
              "type": "uint256"
            },
            {
              "internalType": "uint256",
              "name": "price",
              "type": "uint256"
            },
            {
              "internalType": "bool",
              "name": "checked",
              "type": "bool"
            },
            {
              "internalType": "bool",
              "name": "cancelled",
              "type": "bool"
            }
          ],
          "internalType": "struct Estate.BookingStruct[]",
          "name": "",
          "type": "tuple[]"
        }
      ],
      "stateMutability": "view",
      "type": "function"
    },
    {
      "inputs": [
        {
          "internalType": "uint256",
          "name": "aid",
          "type": "uint256"
        }
      ],
      "name": "getQualifiedReviewers",
      "outputs": [
        {
          "internalType": "address[]",
          "name": "Tenants",
          "type": "address[]"
        }
      ],
      "stateMutability": "view",
      "type": "function"
    },
    {
      "inputs": [
        {
          "internalType": "uint256",
          "name": "aid",
          "type": "uint256"
        }
      ],
      "name": "getReviews",
      "outputs": [
        {
          "components": [
            {
              "internalType": "uint256",
              "name": "id",
              "type": "uint256"
            },
            {
              "internalType": "uint256",
              "name": "aid",
              "type": "uint256"
            },
            {
              "internalType": "string",
              "name": "reviewText",
              "type": "string"
            },
            {
              "internalType": "uint256",
              "name": "timestamp",
              "type": "uint256"
            },
            {
              "internalType": "address",
              "name": "owner",
              "type": "address"
            }
          ],
          "internalType": "struct Estate.ReviewStruct[]",
          "name": "",
          "type": "tuple[]"
        }
      ],
      "stateMutability": "view",
      "type": "function"
    },
    {
      "inputs": [
        {
          "internalType": "uint256",
          "name": "aid",
          "type": "uint256"
        }
      ],
      "name": "getUnavailableDates",
      "outputs": [
        {
          "internalType": "uint256[]",
          "name": "",
          "type": "uint256[]"
        }
      ],
      "stateMutability": "view",
      "type": "function"
    },
    {
      "inputs": [],
      "name": "owner",
      "outputs": [
        {
          "internalType": "address",
          "name": "",
          "type": "address"
        }
      ],
      "stateMutability": "view",
      "type": "function"
    },
    {
      "inputs": [
        {
          "internalType": "uint256",
          "name": "aid",
          "type": "uint256"
        },
        {
          "internalType": "uint256",
          "name": "bookingId",
          "type": "uint256"
        }
      ],
      "name": "refundBooking",
      "outputs": [],
      "stateMutability": "nonpayable",
      "type": "function"
    },
    {
      "inputs": [],
      "name": "renounceOwnership",
      "outputs": [],
      "stateMutability": "nonpayable",
      "type": "function"
    },
    {
      "inputs": [],
      "name": "securityFee",
      "outputs": [
        {
          "internalType": "uint256",
          "name": "",
          "type": "uint256"
        }
      ],
      "stateMutability": "view",
      "type": "function"
    },
    {
      "inputs": [],
      "name": "taxPercent",
      "outputs": [
        {
          "internalType": "uint256",
          "name": "",
          "type": "uint256"
        }
      ],
      "stateMutability": "view",
      "type": "function"
    },
    {
      "inputs": [
        {
          "internalType": "uint256",
          "name": "appartmentId",
          "type": "uint256"
        }
      ],
      "name": "tenantBooked",
      "outputs": [
        {
          "internalType": "bool",
          "name": "",
          "type": "bool"
        }
      ],
      "stateMutability": "view",
      "type": "function"
    },
    {
      "inputs": [
        {
          "internalType": "address",
          "name": "newOwner",
          "type": "address"
        }
      ],
      "name": "transferOwnership",
      "outputs": [],
      "stateMutability": "nonpayable",
      "type": "function"
    },
    {
      "inputs": [
        {
          "internalType": "uint256",
          "name": "id",
          "type": "uint256"
        },
        {
          "internalType": "string",
          "name": "name",
          "type": "string"
        },
        {
          "internalType": "string",
          "name": "description",
          "type": "string"
        },
        {
          "internalType": "string",
          "name": "location",
          "type": "string"
        },
        {
          "internalType": "string",
          "name": "images",
          "type": "string"
        },
        {
          "internalType": "uint256",
          "name": "rooms",
          "type": "uint256"
        },
        {
          "internalType": "uint256",
          "name": "price",
          "type": "uint256"
        }
      ],
      "name": "updateAppartment",
      "outputs": [],
      "stateMutability": "nonpayable",
      "type": "function"
    }
  ],
  "bytecode": "0x60806040523480156200001157600080fd5b506040516200547038038062005470833981810160405281019062000037919062000180565b620000576200004b6200007460201b60201c565b6200007c60201b60201c565b6001808190555081600481905550806003819055505050620001c7565b600033905090565b60008060009054906101000a900473ffffffffffffffffffffffffffffffffffffffff169050816000806101000a81548173ffffffffffffffffffffffffffffffffffffffff021916908373ffffffffffffffffffffffffffffffffffffffff1602179055508173ffffffffffffffffffffffffffffffffffffffff168173ffffffffffffffffffffffffffffffffffffffff167f8be0079c531659141344cd1fd0a4f28419497f9722a3daafe3b4186f6b6457e060405160405180910390a35050565b600080fd5b6000819050919050565b6200015a8162000145565b81146200016657600080fd5b50565b6000815190506200017a816200014f565b92915050565b600080604083850312156200019a576200019962000140565b5b6000620001aa8582860162000169565b9250506020620001bd8582860162000169565b9150509250929050565b61529980620001d76000396000f3fe60806040526004361061012a5760003560e01c80639f31a2be116100ab578063d68e13021161006f578063d68e1302146103ee578063db2f80b714610419578063dec30d3914610456578063df6e02221461047f578063f2fde38b1461049b578063f4010995146104c45761012a565b80639f31a2be146102f7578063b1c9809914610334578063bdfdee761461035f578063c4452e0614610388578063d57a7b54146103c55761012a565b8063715018a6116100f2578063715018a6146102245780637541f41c1461023b57806378419f61146102665780638da5cb5b1461028f5780639d4a2255146102ba5761012a565b8063010b58ee1461012f5780630bb9ce3314610158578063455b3070146101955780635bb0c5d6146101d257806367626e5d146101fb575b600080fd5b34801561013b57600080fd5b506101566004803603810190610151919061345a565b610501565b005b34801561016457600080fd5b5061017f600480360381019061017a919061349a565b6106ef565b60405161018c91906135b7565b60405180910390f35b3480156101a157600080fd5b506101bc60048036038101906101b7919061345a565b6108fd565b6040516101c99190613691565b60405180910390f35b3480156101de57600080fd5b506101f960048036038101906101f491906137f2565b6109ff565b005b34801561020757600080fd5b50610222600480360381019061021d919061345a565b610c83565b005b34801561023057600080fd5b50610239611130565b005b34801561024757600080fd5b50610250611144565b60405161025d919061385d565b60405180910390f35b34801561027257600080fd5b5061028d6004803603810190610288919061345a565b61114a565b005b34801561029b57600080fd5b506102a4611464565b6040516102b19190613887565b60405180910390f35b3480156102c657600080fd5b506102e160048036038101906102dc919061349a565b61148d565b6040516102ee9190613a59565b60405180910390f35b34801561030357600080fd5b5061031e6004803603810190610319919061349a565b611605565b60405161032b9190613a8a565b60405180910390f35b34801561034057600080fd5b5061034961166c565b6040516103569190613c6b565b60405180910390f35b34801561036b57600080fd5b5061038660048036038101906103819190613c8d565b611ac6565b005b34801561039457600080fd5b506103af60048036038101906103aa919061349a565b6121e9565b6040516103bc9190613ea3565b60405180910390f35b3480156103d157600080fd5b506103ec60048036038101906103e79190613ec5565b612513565b005b3480156103fa57600080fd5b506104036128b3565b604051610410919061385d565b60405180910390f35b34801561042557600080fd5b50610440600480360381019061043b919061349a565b6128b9565b60405161044d9190614071565b60405180910390f35b34801561046257600080fd5b5061047d6004803603810190610478919061349a565b612924565b005b6104996004803603810190610494919061415b565b612a8d565b005b3480156104a757600080fd5b506104c260048036038101906104bd91906141e3565b612e47565b005b3480156104d057600080fd5b506104eb60048036038101906104e6919061349a565b612eca565b6040516104f8919061434d565b60405180910390f35b6005600083815260200190815260200160002060070160009054906101000a900473ffffffffffffffffffffffffffffffffffffffff1673ffffffffffffffffffffffffffffffffffffffff163373ffffffffffffffffffffffffffffffffffffffff16146105a5576040517f08c379a000000000000000000000000000000000000000000000000000000000815260040161059c906143cc565b60405180910390fd5b6006600083815260200190815260200160002081815481106105ca576105c96143ec565b5b906000526020600020906006020160050160009054906101000a900460ff16610628576040517f08c379a000000000000000000000000000000000000000000000000000000000815260040161061f9061448d565b60405180910390fd5b600060066000848152602001908152602001600020828154811061064f5761064e6143ec565b5b9060005260206000209060060201600401549050600060646004548361067591906144dc565b61067f919061454d565b90506106cc6005600086815260200190815260200160002060070160009054906101000a900473ffffffffffffffffffffffffffffffffffffffff1682846106c7919061457e565b612ff0565b6106dd6106d7611464565b82612ff0565b6106e933600354612ff0565b50505050565b6060600080600090505b600660008581526020019081526020016000208054905081101561077c5760066000858152602001908152602001600020818154811061073c5761073b6143ec565b5b906000526020600020906006020160050160009054906101000a900460ff161561076f57818061076b906145b2565b9250505b80806001019150506106f9565b508067ffffffffffffffff811115610797576107966136c7565b5b6040519080825280602002602001820160405280156107c55781602001602082028036833780820191505090505b509150600080600090505b60066000868152602001908152602001600020805490508110156108f557600660008681526020019081526020016000208181548110610813576108126143ec565b5b906000526020600020906006020160050160009054906101000a900460ff16156108e85760066000868152602001908152602001600020818154811061085c5761085b6143ec565b5b906000526020600020906006020160020160009054906101000a900473ffffffffffffffffffffffffffffffffffffffff1684838061089a906145b2565b9450815181106108ad576108ac6143ec565b5b602002602001019073ffffffffffffffffffffffffffffffffffffffff16908173ffffffffffffffffffffffffffffffffffffffff16815250505b80806001019150506107d0565b505050919050565b610905613300565b60066000848152602001908152602001600020828154811061092a576109296143ec565b5b90600052602060002090600602016040518060e001604052908160008201548152602001600182015481526020016002820160009054906101000a900473ffffffffffffffffffffffffffffffffffffffff1673ffffffffffffffffffffffffffffffffffffffff1673ffffffffffffffffffffffffffffffffffffffff16815260200160038201548152602001600482015481526020016005820160009054906101000a900460ff161515151581526020016005820160019054906101000a900460ff161515151581525050905092915050565b6008600083815260200190815260200160002060009054906101000a900460ff16610a5f576040517f08c379a0000000000000000000000000000000000000000000000000000000008152600401610a5690614646565b60405180910390fd5b600b60003373ffffffffffffffffffffffffffffffffffffffff1673ffffffffffffffffffffffffffffffffffffffff168152602001908152602001600020600083815260200190815260200160002060009054906101000a900460ff16610afc576040517f08c379a0000000000000000000000000000000000000000000000000000000008152600401610af3906146b2565b60405180910390fd5b6000815111610b40576040517f08c379a0000000000000000000000000000000000000000000000000000000008152600401610b379061471e565b60405180910390fd5b610b48613357565b828160200181815250506007600084815260200190815260200160002080549050816000018181525050818160400181905250610b8361306b565b81606001818152505033816080019073ffffffffffffffffffffffffffffffffffffffff16908173ffffffffffffffffffffffffffffffffffffffff16815250506007600084815260200190815260200160002081908060018154018082558091505060019003906000526020600020906005020160009091909190915060008201518160000155602082015181600101556040820151816002019081610c2a919061494a565b506060820151816003015560808201518160040160006101000a81548173ffffffffffffffffffffffffffffffffffffffff021916908373ffffffffffffffffffffffffffffffffffffffff1602179055505050505050565b610c8b61308b565b6000600660008481526020019081526020016000208281548110610cb257610cb16143ec565b5b90600052602060002090600602016040518060e001604052908160008201548152602001600182015481526020016002820160009054906101000a900473ffffffffffffffffffffffffffffffffffffffff1673ffffffffffffffffffffffffffffffffffffffff1673ffffffffffffffffffffffffffffffffffffffff16815260200160038201548152602001600482015481526020016005820160009054906101000a900460ff161515151581526020016005820160019054906101000a900460ff16151515158152505090508060a0015115610dc6576040517f08c379a0000000000000000000000000000000000000000000000000000000008152600401610dbd9061448d565b60405180910390fd5b600a600084815260200190815260200160002060008260600151815260200190815260200160002060009054906101000a900460ff16610e3b576040517f08c379a0000000000000000000000000000000000000000000000000000000008152600401610e3290614a68565b60405180910390fd5b610e43611464565b73ffffffffffffffffffffffffffffffffffffffff163373ffffffffffffffffffffffffffffffffffffffff1614610f3557806040015173ffffffffffffffffffffffffffffffffffffffff163373ffffffffffffffffffffffffffffffffffffffff1614610ee7576040517f08c379a0000000000000000000000000000000000000000000000000000000008152600401610ede90614ad4565b60405180910390fd5b610eef61306b565b816060015111610f34576040517f08c379a0000000000000000000000000000000000000000000000000000000008152600401610f2b90614b66565b60405180910390fd5b5b6001600660008581526020019081526020016000208381548110610f5c57610f5b6143ec565b5b906000526020600020906006020160050160016101000a81548160ff0219169083151502179055506000600a600085815260200190815260200160002060008360600151815260200190815260200160002060006101000a81548160ff021916908315150217905550600060016009600086815260200190815260200160002080549050610fea919061457e565b90506000600960008681526020019081526020016000208281548110611013576110126143ec565b5b9060005260206000200154905080600960008781526020019081526020016000208581548110611046576110456143ec565b5b90600052602060002001819055506009600086815260200190815260200160002080548061107757611076614b86565b5b600190038181906000526020600020016000905590556000606460035485608001516110a391906144dc565b6110ad919061454d565b905060006002826110be919061454d565b90506111006005600089815260200190815260200160002060070160009054906101000a900473ffffffffffffffffffffffffffffffffffffffff1682612ff0565b61111161110b611464565b82612ff0565b61111f338660800151612ff0565b505050505061112c6130da565b5050565b6111386130e3565b6111426000613161565b565b60045481565b6000600660008481526020019081526020016000208281548110611171576111706143ec565b5b90600052602060002090600602016040518060e001604052908160008201548152602001600182015481526020016002820160009054906101000a900473ffffffffffffffffffffffffffffffffffffffff1673ffffffffffffffffffffffffffffffffffffffff1673ffffffffffffffffffffffffffffffffffffffff16815260200160038201548152602001600482015481526020016005820160009054906101000a900460ff161515151581526020016005820160019054906101000a900460ff1615151515815250509050806040015173ffffffffffffffffffffffffffffffffffffffff163373ffffffffffffffffffffffffffffffffffffffff16146112b2576040517f08c379a00000000000000000000000000000000000000000000000000000000081526004016112a990614ad4565b60405180910390fd5b8060a00151156112f7576040517f08c379a00000000000000000000000000000000000000000000000000000000081526004016112ee9061448d565b60405180910390fd5b600160066000858152602001908152602001600020838154811061131e5761131d6143ec565b5b906000526020600020906006020160050160006101000a81548160ff02191690831515021790555060006064600454836080015161135c91906144dc565b611366919061454d565b905060006064600354846080015161137e91906144dc565b611388919061454d565b90506001600b60003373ffffffffffffffffffffffffffffffffffffffff1673ffffffffffffffffffffffffffffffffffffffff168152602001908152602001600020600087815260200190815260200160002060006101000a81548160ff0219169083151502179055506114426005600087815260200190815260200160002060070160009054906101000a900473ffffffffffffffffffffffffffffffffffffffff1683856080015161143d919061457e565b612ff0565b61145361144d611464565b83612ff0565b61145d3382612ff0565b5050505050565b60008060009054906101000a900473ffffffffffffffffffffffffffffffffffffffff16905090565b606060076000838152602001908152602001600020805480602002602001604051908101604052809291908181526020016000905b828210156115fa57838290600052602060002090600502016040518060a001604052908160008201548152602001600182015481526020016002820180546115099061476d565b80601f01602080910402602001604051908101604052809291908181526020018280546115359061476d565b80156115825780601f1061155757610100808354040283529160200191611582565b820191906000526020600020905b81548152906001019060200180831161156557829003601f168201915b50505050508152602001600382015481526020016004820160009054906101000a900473ffffffffffffffffffffffffffffffffffffffff1673ffffffffffffffffffffffffffffffffffffffff1673ffffffffffffffffffffffffffffffffffffffff1681525050815260200190600101906114c2565b505050509050919050565b6000600b60003373ffffffffffffffffffffffffffffffffffffffff1673ffffffffffffffffffffffffffffffffffffffff168152602001908152602001600020600083815260200190815260200160002060009054906101000a900460ff169050919050565b6060600080600190505b6116806002613225565b81116116d0576005600082815260200190815260200160002060070160159054906101000a900460ff166116bd5781806116b9906145b2565b9250505b80806116c8906145b2565b915050611676565b508067ffffffffffffffff8111156116eb576116ea6136c7565b5b60405190808252806020026020018201604052801561172457816020015b61171161339c565b8152602001906001900390816117095790505b509150600080600190505b6117396002613225565b8111611ac0576005600082815260200190815260200160002060070160159054906101000a900460ff16611aad576005600082815260200190815260200160002060405180610160016040529081600082015481526020016001820180546117a09061476d565b80601f01602080910402602001604051908101604052809291908181526020018280546117cc9061476d565b80156118195780601f106117ee57610100808354040283529160200191611819565b820191906000526020600020905b8154815290600101906020018083116117fc57829003601f168201915b505050505081526020016002820180546118329061476d565b80601f016020809104026020016040519081016040528092919081815260200182805461185e9061476d565b80156118ab5780601f10611880576101008083540402835291602001916118ab565b820191906000526020600020905b81548152906001019060200180831161188e57829003601f168201915b505050505081526020016003820180546118c49061476d565b80601f01602080910402602001604051908101604052809291908181526020018280546118f09061476d565b801561193d5780601f106119125761010080835404028352916020019161193d565b820191906000526020600020905b81548152906001019060200180831161192057829003601f168201915b505050505081526020016004820180546119569061476d565b80601f01602080910402602001604051908101604052809291908181526020018280546119829061476d565b80156119cf5780601f106119a4576101008083540402835291602001916119cf565b820191906000526020600020905b8154815290600101906020018083116119b257829003601f168201915b5050505050815260200160058201548152602001600682015481526020016007820160009054906101000a900473ffffffffffffffffffffffffffffffffffffffff1673ffffffffffffffffffffffffffffffffffffffff1673ffffffffffffffffffffffffffffffffffffffff1681526020016007820160149054906101000a900460ff161515151581526020016007820160159054906101000a900460ff16151515158152602001600882015481525050848380611a8e906145b2565b945081518110611aa157611aa06143ec565b5b60200260200101819052505b8080611ab8906145b2565b91505061172f565b50505090565b600115156008600089815260200190815260200160002060009054906101000a900460ff16151514611b2d576040517f08c379a0000000000000000000000000000000000000000000000000000000008152600401611b2490614c01565b60405180910390fd5b6005600088815260200190815260200160002060070160009054906101000a900473ffffffffffffffffffffffffffffffffffffffff1673ffffffffffffffffffffffffffffffffffffffff163373ffffffffffffffffffffffffffffffffffffffff1614611bd1576040517f08c379a0000000000000000000000000000000000000000000000000000000008152600401611bc890614c93565b60405180910390fd5b6000865111611c15576040517f08c379a0000000000000000000000000000000000000000000000000000000008152600401611c0c90614cff565b60405180910390fd5b6000855111611c59576040517f08c379a0000000000000000000000000000000000000000000000000000000008152600401611c5090614d6b565b60405180910390fd5b6000845111611c9d576040517f08c379a0000000000000000000000000000000000000000000000000000000008152600401611c9490614dd7565b60405180910390fd5b6000835111611ce1576040517f08c379a0000000000000000000000000000000000000000000000000000000008152600401611cd890614e43565b60405180910390fd5b60008211611d24576040517f08c379a0000000000000000000000000000000000000000000000000000000008152600401611d1b90614eaf565b60405180910390fd5b60008111611d67576040517f08c379a0000000000000000000000000000000000000000000000000000000008152600401611d5e90614f1b565b60405180910390fd5b6000600560008981526020019081526020016000206040518061016001604052908160008201548152602001600182018054611da29061476d565b80601f0160208091040260200160405190810160405280929190818152602001828054611dce9061476d565b8015611e1b5780601f10611df057610100808354040283529160200191611e1b565b820191906000526020600020905b815481529060010190602001808311611dfe57829003601f168201915b50505050508152602001600282018054611e349061476d565b80601f0160208091040260200160405190810160405280929190818152602001828054611e609061476d565b8015611ead5780601f10611e8257610100808354040283529160200191611ead565b820191906000526020600020905b815481529060010190602001808311611e9057829003601f168201915b50505050508152602001600382018054611ec69061476d565b80601f0160208091040260200160405190810160405280929190818152602001828054611ef29061476d565b8015611f3f5780601f10611f1457610100808354040283529160200191611f3f565b820191906000526020600020905b815481529060010190602001808311611f2257829003601f168201915b50505050508152602001600482018054611f589061476d565b80601f0160208091040260200160405190810160405280929190818152602001828054611f849061476d565b8015611fd15780601f10611fa657610100808354040283529160200191611fd1565b820191906000526020600020905b815481529060010190602001808311611fb457829003601f168201915b5050505050815260200160058201548152602001600682015481526020016007820160009054906101000a900473ffffffffffffffffffffffffffffffffffffffff1673ffffffffffffffffffffffffffffffffffffffff1673ffffffffffffffffffffffffffffffffffffffff1681526020016007820160149054906101000a900460ff161515151581526020016007820160159054906101000a900460ff161515151581526020016008820154815250509050868160200181905250858160400181905250848160600181905250838160800181905250828160a0018181525050818160c001818152505080600560008a81526020019081526020016000206000820151816000015560208201518160010190816120f1919061494a565b506040820151816002019081612107919061494a565b50606082015181600301908161211d919061494a565b506080820151816004019081612133919061494a565b5060a0820151816005015560c0820151816006015560e08201518160070160006101000a81548173ffffffffffffffffffffffffffffffffffffffff021916908373ffffffffffffffffffffffffffffffffffffffff1602179055506101008201518160070160146101000a81548160ff0219169083151502179055506101208201518160070160156101000a81548160ff02191690831515021790555061014082015181600801559050505050505050505050565b6121f161339c565b60056000838152602001908152602001600020604051806101600160405290816000820154815260200160018201805461222a9061476d565b80601f01602080910402602001604051908101604052809291908181526020018280546122569061476d565b80156122a35780601f10612278576101008083540402835291602001916122a3565b820191906000526020600020905b81548152906001019060200180831161228657829003601f168201915b505050505081526020016002820180546122bc9061476d565b80601f01602080910402602001604051908101604052809291908181526020018280546122e89061476d565b80156123355780601f1061230a57610100808354040283529160200191612335565b820191906000526020600020905b81548152906001019060200180831161231857829003601f168201915b5050505050815260200160038201805461234e9061476d565b80601f016020809104026020016040519081016040528092919081815260200182805461237a9061476d565b80156123c75780601f1061239c576101008083540402835291602001916123c7565b820191906000526020600020905b8154815290600101906020018083116123aa57829003601f168201915b505050505081526020016004820180546123e09061476d565b80601f016020809104026020016040519081016040528092919081815260200182805461240c9061476d565b80156124595780601f1061242e57610100808354040283529160200191612459565b820191906000526020600020905b81548152906001019060200180831161243c57829003601f168201915b5050505050815260200160058201548152602001600682015481526020016007820160009054906101000a900473ffffffffffffffffffffffffffffffffffffffff1673ffffffffffffffffffffffffffffffffffffffff1673ffffffffffffffffffffffffffffffffffffffff1681526020016007820160149054906101000a900460ff161515151581526020016007820160159054906101000a900460ff161515151581526020016008820154815250509050919050565b6000865111612557576040517f08c379a000000000000000000000000000000000000000000000000000000000815260040161254e90614cff565b60405180910390fd5b600085511161259b576040517f08c379a000000000000000000000000000000000000000000000000000000000815260040161259290614d6b565b60405180910390fd5b60008451116125df576040517f08c379a00000000000000000000000000000000000000000000000000000000081526004016125d690614dd7565b60405180910390fd5b6000835111612623576040517f08c379a000000000000000000000000000000000000000000000000000000000815260040161261a90614e43565b60405180910390fd5b60008211612666576040517f08c379a000000000000000000000000000000000000000000000000000000000815260040161265d90614eaf565b60405180910390fd5b600081116126a9576040517f08c379a00000000000000000000000000000000000000000000000000000000081526004016126a090614f1b565b60405180910390fd5b6126b36002613233565b6126bb61339c565b6126c56002613225565b816000018181525050868160200181905250858160400181905250848160600181905250838160800181905250828160a0018181525050818160c0018181525050338160e0019073ffffffffffffffffffffffffffffffffffffffff16908173ffffffffffffffffffffffffffffffffffffffff168152505061274661306b565b816101400181815250506001600860008360000151815260200190815260200160002060006101000a81548160ff021916908315150217905550806005600061278f6002613225565b81526020019081526020016000206000820151816000015560208201518160010190816127bc919061494a565b5060408201518160020190816127d2919061494a565b5060608201518160030190816127e8919061494a565b5060808201518160040190816127fe919061494a565b5060a0820151816005015560c0820151816006015560e08201518160070160006101000a81548173ffffffffffffffffffffffffffffffffffffffff021916908373ffffffffffffffffffffffffffffffffffffffff1602179055506101008201518160070160146101000a81548160ff0219169083151502179055506101208201518160070160156101000a81548160ff021916908315150217905550610140820151816008015590505050505050505050565b60035481565b60606009600083815260200190815260200160002080548060200260200160405190810160405280929190818152602001828054801561291857602002820191906000526020600020905b815481526020019060010190808311612904575b50505050509050919050565b600115156008600083815260200190815260200160002060009054906101000a900460ff1615151461298b576040517f08c379a000000000000000000000000000000000000000000000000000000000815260040161298290614c01565b60405180910390fd5b3373ffffffffffffffffffffffffffffffffffffffff166005600083815260200190815260200160002060070160009054906101000a900473ffffffffffffffffffffffffffffffffffffffff1673ffffffffffffffffffffffffffffffffffffffff1614612a2f576040517f08c379a0000000000000000000000000000000000000000000000000000000008152600401612a26906143cc565b60405180910390fd5b60006008600083815260200190815260200160002060006101000a81548160ff02191690831515021790555060016005600083815260200190815260200160002060070160156101000a81548160ff02191690831515021790555050565b6008600083815260200190815260200160002060009054906101000a900460ff16612aed576040517f08c379a0000000000000000000000000000000000000000000000000000000008152600401612ae490614f87565b60405180910390fd5b606460035482516005600086815260200190815260200160002060060154612b1591906144dc565b612b1f91906144dc565b612b29919061454d565b81516005600085815260200190815260200160002060060154612b4c91906144dc565b612b569190614fa7565b341015612b98576040517f08c379a0000000000000000000000000000000000000000000000000000000008152600401612b8f90615027565b60405180910390fd5b612ba28282613249565b612be1576040517f08c379a0000000000000000000000000000000000000000000000000000000008152600401612bd890615093565b60405180910390fd5b60005b8151811015612e4257612bf5613300565b83816020018181525050600660008581526020019081526020016000208054905081600001818152505033816040019073ffffffffffffffffffffffffffffffffffffffff16908173ffffffffffffffffffffffffffffffffffffffff1681525050828281518110612c6a57612c696143ec565b5b6020026020010151816060018181525050600560008581526020019081526020016000206006015481608001818152505060066000858152602001908152602001600020819080600181540180825580915050600190039060005260206000209060060201600090919091909150600082015181600001556020820151816001015560408201518160020160006101000a81548173ffffffffffffffffffffffffffffffffffffffff021916908373ffffffffffffffffffffffffffffffffffffffff160217905550606082015181600301556080820151816004015560a08201518160050160006101000a81548160ff02191690831515021790555060c08201518160050160016101000a81548160ff02191690831515021790555050506001600a60008681526020019081526020016000206000858581518110612db357612db26143ec565b5b6020026020010151815260200190815260200160002060006101000a81548160ff02191690831515021790555060096000858152602001908152602001600020838381518110612e0657612e056143ec565b5b60200260200101519080600181540180825580915050600190039060005260206000200160009091909190915055508080600101915050612be4565b505050565b612e4f6130e3565b600073ffffffffffffffffffffffffffffffffffffffff168173ffffffffffffffffffffffffffffffffffffffff1603612ebe576040517f08c379a0000000000000000000000000000000000000000000000000000000008152600401612eb590615125565b60405180910390fd5b612ec781613161565b50565b606060066000838152602001908152602001600020805480602002602001604051908101604052809291908181526020016000905b82821015612fe557838290600052602060002090600602016040518060e001604052908160008201548152602001600182015481526020016002820160009054906101000a900473ffffffffffffffffffffffffffffffffffffffff1673ffffffffffffffffffffffffffffffffffffffff1673ffffffffffffffffffffffffffffffffffffffff16815260200160038201548152602001600482015481526020016005820160009054906101000a900460ff161515151581526020016005820160019054906101000a900460ff16151515158152505081526020019060010190612eff565b505050509050919050565b60008273ffffffffffffffffffffffffffffffffffffffff168260405161301690615176565b60006040518083038185875af1925050503d8060008114613053576040519150601f19603f3d011682016040523d82523d6000602084013e613058565b606091505b505090508061306657600080fd5b505050565b60006103e8804261307c91906144dc565b6130869190614fa7565b905090565b6002600154036130d0576040517f08c379a00000000000000000000000000000000000000000000000000000000081526004016130c7906151d7565b60405180910390fd5b6002600181905550565b60018081905550565b6130eb6132f8565b73ffffffffffffffffffffffffffffffffffffffff16613109611464565b73ffffffffffffffffffffffffffffffffffffffff161461315f576040517f08c379a000000000000000000000000000000000000000000000000000000000815260040161315690615243565b60405180910390fd5b565b60008060009054906101000a900473ffffffffffffffffffffffffffffffffffffffff169050816000806101000a81548173ffffffffffffffffffffffffffffffffffffffff021916908373ffffffffffffffffffffffffffffffffffffffff1602179055508173ffffffffffffffffffffffffffffffffffffffff168173ffffffffffffffffffffffffffffffffffffffff167f8be0079c531659141344cd1fd0a4f28419497f9722a3daafe3b4186f6b6457e060405160405180910390a35050565b600081600001549050919050565b6001816000016000828254019250508190555050565b6000806001905060005b83518110156132ed5760005b60096000878152602001908152602001600020805490508110156132df576009600087815260200190815260200160002081815481106132a2576132a16143ec565b5b90600052602060002001548583815181106132c0576132bf6143ec565b5b6020026020010151036132d257600092505b808060010191505061325f565b508080600101915050613253565b508091505092915050565b600033905090565b6040518060e001604052806000815260200160008152602001600073ffffffffffffffffffffffffffffffffffffffff16815260200160008152602001600081526020016000151581526020016000151581525090565b6040518060a0016040528060008152602001600081526020016060815260200160008152602001600073ffffffffffffffffffffffffffffffffffffffff1681525090565b60405180610160016040528060008152602001606081526020016060815260200160608152602001606081526020016000815260200160008152602001600073ffffffffffffffffffffffffffffffffffffffff168152602001600015158152602001600015158152602001600081525090565b6000604051905090565b600080fd5b600080fd5b6000819050919050565b61343781613424565b811461344257600080fd5b50565b6000813590506134548161342e565b92915050565b600080604083850312156134715761347061341a565b5b600061347f85828601613445565b925050602061349085828601613445565b9150509250929050565b6000602082840312156134b0576134af61341a565b5b60006134be84828501613445565b91505092915050565b600081519050919050565b600082825260208201905092915050565b6000819050602082019050919050565b600073ffffffffffffffffffffffffffffffffffffffff82169050919050565b600061351e826134f3565b9050919050565b61352e81613513565b82525050565b60006135408383613525565b60208301905092915050565b6000602082019050919050565b6000613564826134c7565b61356e81856134d2565b9350613579836134e3565b8060005b838110156135aa5781516135918882613534565b975061359c8361354c565b92505060018101905061357d565b5085935050505092915050565b600060208201905081810360008301526135d18184613559565b905092915050565b6135e281613424565b82525050565b60008115159050919050565b6135fd816135e8565b82525050565b60e08201600082015161361960008501826135d9565b50602082015161362c60208501826135d9565b50604082015161363f6040850182613525565b50606082015161365260608501826135d9565b50608082015161366560808501826135d9565b5060a082015161367860a08501826135f4565b5060c082015161368b60c08501826135f4565b50505050565b600060e0820190506136a66000830184613603565b92915050565b600080fd5b600080fd5b6000601f19601f8301169050919050565b7f4e487b7100000000000000000000000000000000000000000000000000000000600052604160045260246000fd5b6136ff826136b6565b810181811067ffffffffffffffff8211171561371e5761371d6136c7565b5b80604052505050565b6000613731613410565b905061373d82826136f6565b919050565b600067ffffffffffffffff82111561375d5761375c6136c7565b5b613766826136b6565b9050602081019050919050565b82818337600083830152505050565b600061379561379084613742565b613727565b9050828152602081018484840111156137b1576137b06136b1565b5b6137bc848285613773565b509392505050565b600082601f8301126137d9576137d86136ac565b5b81356137e9848260208601613782565b91505092915050565b600080604083850312156138095761380861341a565b5b600061381785828601613445565b925050602083013567ffffffffffffffff8111156138385761383761341f565b5b613844858286016137c4565b9150509250929050565b61385781613424565b82525050565b6000602082019050613872600083018461384e565b92915050565b61388181613513565b82525050565b600060208201905061389c6000830184613878565b92915050565b600081519050919050565b600082825260208201905092915050565b6000819050602082019050919050565b600081519050919050565b600082825260208201905092915050565b60005b838110156139085780820151818401526020810190506138ed565b60008484015250505050565b600061391f826138ce565b61392981856138d9565b93506139398185602086016138ea565b613942816136b6565b840191505092915050565b600060a08301600083015161396560008601826135d9565b50602083015161397860208601826135d9565b50604083015184820360408601526139908282613914565b91505060608301516139a560608601826135d9565b5060808301516139b86080860182613525565b508091505092915050565b60006139cf838361394d565b905092915050565b6000602082019050919050565b60006139ef826138a2565b6139f981856138ad565b935083602082028501613a0b856138be565b8060005b85811015613a475784840389528151613a2885826139c3565b9450613a33836139d7565b925060208a01995050600181019050613a0f565b50829750879550505050505092915050565b60006020820190508181036000830152613a7381846139e4565b905092915050565b613a84816135e8565b82525050565b6000602082019050613a9f6000830184613a7b565b92915050565b600081519050919050565b600082825260208201905092915050565b6000819050602082019050919050565b600061016083016000830151613aea60008601826135d9565b5060208301518482036020860152613b028282613914565b91505060408301518482036040860152613b1c8282613914565b91505060608301518482036060860152613b368282613914565b91505060808301518482036080860152613b508282613914565b91505060a0830151613b6560a08601826135d9565b5060c0830151613b7860c08601826135d9565b5060e0830151613b8b60e0860182613525565b50610100830151613ba06101008601826135f4565b50610120830151613bb56101208601826135f4565b50610140830151613bca6101408601826135d9565b508091505092915050565b6000613be18383613ad1565b905092915050565b6000602082019050919050565b6000613c0182613aa5565b613c0b8185613ab0565b935083602082028501613c1d85613ac1565b8060005b85811015613c595784840389528151613c3a8582613bd5565b9450613c4583613be9565b925060208a01995050600181019050613c21565b50829750879550505050505092915050565b60006020820190508181036000830152613c858184613bf6565b905092915050565b600080600080600080600060e0888a031215613cac57613cab61341a565b5b6000613cba8a828b01613445565b975050602088013567ffffffffffffffff811115613cdb57613cda61341f565b5b613ce78a828b016137c4565b965050604088013567ffffffffffffffff811115613d0857613d0761341f565b5b613d148a828b016137c4565b955050606088013567ffffffffffffffff811115613d3557613d3461341f565b5b613d418a828b016137c4565b945050608088013567ffffffffffffffff811115613d6257613d6161341f565b5b613d6e8a828b016137c4565b93505060a0613d7f8a828b01613445565b92505060c0613d908a828b01613445565b91505092959891949750929550565b600061016083016000830151613db860008601826135d9565b5060208301518482036020860152613dd08282613914565b91505060408301518482036040860152613dea8282613914565b91505060608301518482036060860152613e048282613914565b91505060808301518482036080860152613e1e8282613914565b91505060a0830151613e3360a08601826135d9565b5060c0830151613e4660c08601826135d9565b5060e0830151613e5960e0860182613525565b50610100830151613e6e6101008601826135f4565b50610120830151613e836101208601826135f4565b50610140830151613e986101408601826135d9565b508091505092915050565b60006020820190508181036000830152613ebd8184613d9f565b905092915050565b60008060008060008060c08789031215613ee257613ee161341a565b5b600087013567ffffffffffffffff811115613f0057613eff61341f565b5b613f0c89828a016137c4565b965050602087013567ffffffffffffffff811115613f2d57613f2c61341f565b5b613f3989828a016137c4565b955050604087013567ffffffffffffffff811115613f5a57613f5961341f565b5b613f6689828a016137c4565b945050606087013567ffffffffffffffff811115613f8757613f8661341f565b5b613f9389828a016137c4565b9350506080613fa489828a01613445565b92505060a0613fb589828a01613445565b9150509295509295509295565b600081519050919050565b600082825260208201905092915050565b6000819050602082019050919050565b6000613ffa83836135d9565b60208301905092915050565b6000602082019050919050565b600061401e82613fc2565b6140288185613fcd565b935061403383613fde565b8060005b8381101561406457815161404b8882613fee565b975061405683614006565b925050600181019050614037565b5085935050505092915050565b6000602082019050818103600083015261408b8184614013565b905092915050565b600067ffffffffffffffff8211156140ae576140ad6136c7565b5b602082029050602081019050919050565b600080fd5b60006140d76140d284614093565b613727565b905080838252602082019050602084028301858111156140fa576140f96140bf565b5b835b81811015614123578061410f8882613445565b8452602084019350506020810190506140fc565b5050509392505050565b600082601f830112614142576141416136ac565b5b81356141528482602086016140c4565b91505092915050565b600080604083850312156141725761417161341a565b5b600061418085828601613445565b925050602083013567ffffffffffffffff8111156141a1576141a061341f565b5b6141ad8582860161412d565b9150509250929050565b6141c081613513565b81146141cb57600080fd5b50565b6000813590506141dd816141b7565b92915050565b6000602082840312156141f9576141f861341a565b5b6000614207848285016141ce565b91505092915050565b600081519050919050565b600082825260208201905092915050565b6000819050602082019050919050565b60e08201600082015161425260008501826135d9565b50602082015161426560208501826135d9565b5060408201516142786040850182613525565b50606082015161428b60608501826135d9565b50608082015161429e60808501826135d9565b5060a08201516142b160a08501826135f4565b5060c08201516142c460c08501826135f4565b50505050565b60006142d6838361423c565b60e08301905092915050565b6000602082019050919050565b60006142fa82614210565b614304818561421b565b935061430f8361422c565b8060005b8381101561434057815161432788826142ca565b9750614332836142e2565b925050600181019050614313565b5085935050505092915050565b6000602082019050818103600083015261436781846142ef565b905092915050565b600082825260208201905092915050565b7f556e617574686f72697a656420656e7469747900000000000000000000000000600082015250565b60006143b660138361436f565b91506143c182614380565b602082019050919050565b600060208201905081810360008301526143e5816143a9565b9050919050565b7f4e487b7100000000000000000000000000000000000000000000000000000000600052603260045260246000fd5b7f41706172746d656e7420616c726561647920636865636b6564206f6e2074686960008201527f7320646174652100000000000000000000000000000000000000000000000000602082015250565b600061447760278361436f565b91506144828261441b565b604082019050919050565b600060208201905081810360008301526144a68161446a565b9050919050565b7f4e487b7100000000000000000000000000000000000000000000000000000000600052601160045260246000fd5b60006144e782613424565b91506144f283613424565b925082820261450081613424565b91508282048414831517614517576145166144ad565b5b5092915050565b7f4e487b7100000000000000000000000000000000000000000000000000000000600052601260045260246000fd5b600061455882613424565b915061456383613424565b9250826145735761457261451e565b5b828204905092915050565b600061458982613424565b915061459483613424565b92508282039050818111156145ac576145ab6144ad565b5b92915050565b60006145bd82613424565b91507fffffffffffffffffffffffffffffffffffffffffffffffffffffffffffffffff82036145ef576145ee6144ad565b5b600182019050919050565b7f4170706172746d656e74206e6f7420617661696c61626c650000000000000000600082015250565b600061463060188361436f565b915061463b826145fa565b602082019050919050565b6000602082019050818103600083015261465f81614623565b9050919050565b7f426f6f6b206669727374206265666f7265207265766965770000000000000000600082015250565b600061469c60188361436f565b91506146a782614666565b602082019050919050565b600060208201905081810360008301526146cb8161468f565b9050919050565b7f52657669657720746578742063616e6e6f7420626520656d7074790000000000600082015250565b6000614708601b8361436f565b9150614713826146d2565b602082019050919050565b60006020820190508181036000830152614737816146fb565b9050919050565b7f4e487b7100000000000000000000000000000000000000000000000000000000600052602260045260246000fd5b6000600282049050600182168061478557607f821691505b6020821081036147985761479761473e565b5b50919050565b60008190508160005260206000209050919050565b60006020601f8301049050919050565b600082821b905092915050565b6000600883026148007fffffffffffffffffffffffffffffffffffffffffffffffffffffffffffffffff826147c3565b61480a86836147c3565b95508019841693508086168417925050509392505050565b6000819050919050565b600061484761484261483d84613424565b614822565b613424565b9050919050565b6000819050919050565b6148618361482c565b61487561486d8261484e565b8484546147d0565b825550505050565b600090565b61488a61487d565b614895818484614858565b505050565b5b818110156148b9576148ae600082614882565b60018101905061489b565b5050565b601f8211156148fe576148cf8161479e565b6148d8846147b3565b810160208510156148e7578190505b6148fb6148f3856147b3565b83018261489a565b50505b505050565b600082821c905092915050565b600061492160001984600802614903565b1980831691505092915050565b600061493a8383614910565b9150826002028217905092915050565b614953826138ce565b67ffffffffffffffff81111561496c5761496b6136c7565b5b614976825461476d565b6149818282856148bd565b600060209050601f8311600181146149b457600084156149a2578287015190505b6149ac858261492e565b865550614a14565b601f1984166149c28661479e565b60005b828110156149ea578489015182556001820191506020850194506020810190506149c5565b86831015614a075784890151614a03601f891682614910565b8355505b6001600288020188555050505b505050505050565b7f446964206e6f7420626f6f6b206f6e2074686973206461746521000000000000600082015250565b6000614a52601a8361436f565b9150614a5d82614a1c565b602082019050919050565b60006020820190508181036000830152614a8181614a45565b9050919050565b7f556e617574686f72697a65642074656e616e7421000000000000000000000000600082015250565b6000614abe60148361436f565b9150614ac982614a88565b602082019050919050565b60006020820190508181036000830152614aed81614ab1565b9050919050565b7f43616e206e6f206c6f6e67657220726566756e642c20626f6f6b696e6720646160008201527f7465207374617274656400000000000000000000000000000000000000000000602082015250565b6000614b50602a8361436f565b9150614b5b82614af4565b604082019050919050565b60006020820190508181036000830152614b7f81614b43565b9050919050565b7f4e487b7100000000000000000000000000000000000000000000000000000000600052603160045260246000fd5b7f4170706172746d656e74206e6f7420666f756e64000000000000000000000000600082015250565b6000614beb60148361436f565b9150614bf682614bb5565b602082019050919050565b60006020820190508181036000830152614c1a81614bde565b9050919050565b7f556e617574686f72697a656420706572736f6e6e656c2c206f776e6572206f6e60008201527f6c79000000000000000000000000000000000000000000000000000000000000602082015250565b6000614c7d60228361436f565b9150614c8882614c21565b604082019050919050565b60006020820190508181036000830152614cac81614c70565b9050919050565b7f4e616d652063616e6e6f7420626520656d707479000000000000000000000000600082015250565b6000614ce960148361436f565b9150614cf482614cb3565b602082019050919050565b60006020820190508181036000830152614d1881614cdc565b9050919050565b7f4465736372697074696f6e2063616e6e6f7420626520656d7074790000000000600082015250565b6000614d55601b8361436f565b9150614d6082614d1f565b602082019050919050565b60006020820190508181036000830152614d8481614d48565b9050919050565b7f4c6f636174696f6e2063616e6e6f7420626520656d7074790000000000000000600082015250565b6000614dc160188361436f565b9150614dcc82614d8b565b602082019050919050565b60006020820190508181036000830152614df081614db4565b9050919050565b7f496d616765732063616e6e6f7420626520656d70747900000000000000000000600082015250565b6000614e2d60168361436f565b9150614e3882614df7565b602082019050919050565b60006020820190508181036000830152614e5c81614e20565b9050919050565b7f526f6f6d732063616e6e6f74206265207a65726f000000000000000000000000600082015250565b6000614e9960148361436f565b9150614ea482614e63565b602082019050919050565b60006020820190508181036000830152614ec881614e8c565b9050919050565b7f50726963652063616e6e6f74206265207a65726f000000000000000000000000600082015250565b6000614f0560148361436f565b9150614f1082614ecf565b602082019050919050565b60006020820190508181036000830152614f3481614ef8565b9050919050565b7f41706172746d656e74206e6f7420666f756e6421000000000000000000000000600082015250565b6000614f7160148361436f565b9150614f7c82614f3b565b602082019050919050565b60006020820190508181036000830152614fa081614f64565b9050919050565b6000614fb282613424565b9150614fbd83613424565b9250828201905080821115614fd557614fd46144ad565b5b92915050565b7f496e73756666696369656e742066756e64210000000000000000000000000000600082015250565b600061501160128361436f565b915061501c82614fdb565b602082019050919050565b6000602082019050818103600083015261504081615004565b9050919050565b7f426f6f6b6564206461746520666f756e6420616d6f6e67206461746573210000600082015250565b600061507d601e8361436f565b915061508882615047565b602082019050919050565b600060208201905081810360008301526150ac81615070565b9050919050565b7f4f776e61626c653a206e6577206f776e657220697320746865207a65726f206160008201527f6464726573730000000000000000000000000000000000000000000000000000602082015250565b600061510f60268361436f565b915061511a826150b3565b604082019050919050565b6000602082019050818103600083015261513e81615102565b9050919050565b600081905092915050565b50565b6000615160600083615145565b915061516b82615150565b600082019050919050565b600061518182615153565b9150819050919050565b7f5265656e7472616e637947756172643a207265656e7472616e742063616c6c00600082015250565b60006151c1601f8361436f565b91506151cc8261518b565b602082019050919050565b600060208201905081810360008301526151f0816151b4565b9050919050565b7f4f776e61626c653a2063616c6c6572206973206e6f7420746865206f776e6572600082015250565b600061522d60208361436f565b9150615238826151f7565b602082019050919050565b6000602082019050818103600083015261525c81615220565b905091905056fea2646970667358221220aa4ee95499eb1cfc3375c76481944c74edc124dec3a108dab49a1caf61b9aeb964736f6c63430008180033",
  "linkReferences": {},
  "deployedLinkReferences": {}
}